:1000000075B0007590FFE590B4FF0280F375B0FE07
:10001000E590B4FF2875B0FDE590B4FF2575B0FB01
:10002000E590B4FF2275B0F7E590B4FF1F75B0EF0F
:10003000E590B4FF1C75B0DFE590B4FF19900600A1
:100040008023900608801E90061080199006188064
:1000500014900620800F900628800A9006308005B4
:1000600090063080007808135003A3D8FAD13AD113
:0C0070003FD130E493D153E53002066725
:100600003031323334353637383941424344454648
:100610004748494A4B4C4D4E4F50515253545556F2
:100620005758595A21402324255E262A28295F2B12
:100630007480D1482274C0D148227438D1482274C1
:100640000FD1487401D14822F5A0C2B6D2B7C2B7C3
:10065000D15E22F5A0D2B6D2B7C2B7D15E2278FF62
:0706600079FFD9FED8FA2250
:00000001FF
