:0E08870048454C4C4F0057454C434F4D4500E3
:0F087800758DFD758BFD759840758920D28E2288
:060800008B088A09890A39
:10080600E4FFFEAB08AA09A90A8F828E8312082D7F
:10081600FDFB3395E04B600E8D993099FDC2990F23
:06082600BF00010E80DDA1
:01082C0022A9
:10085A00120878D2A020A00B7BFF7A0879871208A9
:0E086A000080F27BFF7A08798D12080080E78B
:030000000208955E
:0C089500787FE4F6D8FD75810A02085A4D
:10082D00BB010CE58229F582E5833AF583E0225080
:10083D0006E92582F8E622BBFE06E92582F8E222CA
:0D084D00E58229F582E5833AF583E49322E4
:00000001FF
