:0608870048656C6C6F0077
:0F085600758DFA758BFA758920759840D28E22B0
:08087F008F993099FDC2992206
:06082D008B088A09890A0C
:10083300E4FDFCAB08AA09A90A8D828C8312080087
:10084300FFFB3395E04B600A12087F0DBD00010CDE
:0208530080E142
:010855002280
:0E0865001208567BFF7A08798712082D80FE54
:0300000002087380
:0C087300787FE4F6D8FD75810A02086564
:10080000BB010CE58229F582E5833AF583E02250AD
:1008100006E92582F8E622BBFE06E92582F8E222F7
:0D082000E58229F582E5833AF583E4932211
:00000001FF
