:100000007590FF75A00090050A113090050B113B0B
:1000100090050C114690050C115190050D115C9046
:10002000050D116790050D117290050D117D80D69B
:10003000C297E493F5A011A4D29722C296E493F557
:10004000A011A4D29622C295E493F5A011A4D29552
:1000500022C294E493F5A011A4D29422C293E49313
:10006000F5A011A4D29322C292E493F5A011A4D2D8
:100070009222C291E493F5A011A4D29122C290E4FD
:1000800093F5A011A4D290227B0578FF79FFD9FEC9
:10009000D8FADBF622E493F5A01188119E22E4F54C
:0D00A000A011A422780F797FD9FED8FA2292
:10050000FC60DAF266B6BEE0FEF66E9E1CFCEE8E75
:02051000DA010E
:00000001FF
